{"contracts/Raffle.sol":{"Raffle":{"abi":[{"inputs":[{"internalType":"address","name":"vrfCoordinatorV2","type":"address"},{"internalType":"uint256","name":"entranceFee","type":"uint256"},{"internalType":"bytes32","name":"gasLane","type":"bytes32"},{"internalType":"uint64","name":"subscriptionId","type":"uint64"},{"internalType":"uint32","name":"callbackGasLimit","type":"uint32"},{"internalType":"uint256","name":"interval","type":"uint256"}],"stateMutability":"nonpayable","type":"constructor"},{"inputs":[{"internalType":"address","name":"have","type":"address"},{"internalType":"address","name":"want","type":"address"}],"name":"OnlyCoordinatorCanFulfill","type":"error"},{"inputs":[{"internalType":"uint256","name":"cuurentBalance","type":"uint256"},{"internalType":"uint256","name":"numPlayers","type":"uint256"},{"internalType":"uint256","name":"raffleState","type":"uint256"}],"name":"Raffle_UpkeepNotNeeded","type":"error"},{"inputs":[],"name":"Raffle__NotEnoughETHEntered","type":"error"},{"inputs":[],"name":"Raffle__NotOpen","type":"error"},{"inputs":[],"name":"Raffle__TransferFailed","type":"error"},{"anonymous":false,"inputs":[{"indexed":true,"internalType":"address","name":"player","type":"address"}],"name":"RaffleEnter","type":"event"},{"anonymous":false,"inputs":[{"indexed":true,"internalType":"address","name":"winner","type":"address"}],"name":"WinnerPicked","type":"event"},{"anonymous":false,"inputs":[{"indexed":true,"internalType":"uint256","name":"requestId","type":"uint256"}],"name":"requestedRaffleWinner","type":"event"},{"inputs":[{"internalType":"bytes","name":"","type":"bytes"}],"name":"checkUpkeep","outputs":[{"internalType":"bool","name":"upkeepNeeded","type":"bool"},{"internalType":"bytes","name":"","type":"bytes"}],"stateMutability":"nonpayable","type":"function"},{"inputs":[],"name":"enterRaffle","outputs":[],"stateMutability":"payable","type":"function"},{"inputs":[],"name":"getEntranceFee","outputs":[{"internalType":"uint256","name":"","type":"uint256"}],"stateMutability":"view","type":"function"},{"inputs":[],"name":"getLatestTimeStamp","outputs":[{"internalType":"uint256","name":"","type":"uint256"}],"stateMutability":"view","type":"function"},{"inputs":[],"name":"getNumWords","outputs":[{"internalType":"uint256","name":"","type":"uint256"}],"stateMutability":"pure","type":"function"},{"inputs":[],"name":"getNumberOfPlayers","outputs":[{"internalType":"uint256","name":"","type":"uint256"}],"stateMutability":"view","type":"function"},{"inputs":[{"internalType":"uint256","name":"_index","type":"uint256"}],"name":"getPlayer","outputs":[{"internalType":"address","name":"","type":"address"}],"stateMutability":"view","type":"function"},{"inputs":[],"name":"getRaffleState","outputs":[{"internalType":"enum Raffle.RaffleState","name":"","type":"uint8"}],"stateMutability":"view","type":"function"},{"inputs":[],"name":"getRecentWinner","outputs":[{"internalType":"address","name":"","type":"address"}],"stateMutability":"view","type":"function"},{"inputs":[],"name":"getRequestConfirmations","outputs":[{"internalType":"uint256","name":"","type":"uint256"}],"stateMutability":"pure","type":"function"},{"inputs":[{"internalType":"bytes","name":"","type":"bytes"}],"name":"performUpkeep","outputs":[],"stateMutability":"nonpayable","type":"function"},{"inputs":[{"internalType":"uint256","name":"requestId","type":"uint256"},{"internalType":"uint256[]","name":"randomWords","type":"uint256[]"}],"name":"rawFulfillRandomWords","outputs":[],"stateMutability":"nonpayable","type":"function"}],"devdoc":{"author":"Alireza Alizadeh","details":"this implement the chainlink vrf and chainlink keepers","kind":"dev","methods":{"checkUpkeep(bytes)":{"details":"this is the function that the Chainlink Keeper nodes call they look for the `upkeepNeeded` to return true. the following should be true in order to return true: 1. our time interval should have passed. 2. the lottery should have at least 1 player, and have some ETH. 3. our subscription is funded with LINK 4. the lottery should be in an \"open\" state."}},"title":"a sample raffle contract","version":1},"evm":{"bytecode":{"linkReferences":{},"object":"6101606040523480156200001257600080fd5b5060405162001800380380620018008339818101604052810190620000389190620001ad565b858073ffffffffffffffffffffffffffffffffffffffff1660808173ffffffffffffffffffffffffffffffffffffffff1660601b81525050508460a081815250508573ffffffffffffffffffffffffffffffffffffffff1660c08173ffffffffffffffffffffffffffffffffffffffff1660601b815250508360e081815250508267ffffffffffffffff166101008167ffffffffffffffff1660c01b815250508163ffffffff166101208163ffffffff1660e01b815250506000600160146101000a81548160ff02191690836001811115620001195762000118620002b5565b5b0217905550426002819055508061014081815250505050505050506200036b565b6000815190506200014b81620002e9565b92915050565b600081519050620001628162000303565b92915050565b60008151905062000179816200031d565b92915050565b600081519050620001908162000337565b92915050565b600081519050620001a78162000351565b92915050565b60008060008060008060c08789031215620001cd57620001cc620002e4565b5b6000620001dd89828a016200013a565b9650506020620001f089828a0162000168565b95505060406200020389828a0162000151565b94505060606200021689828a0162000196565b93505060806200022989828a016200017f565b92505060a06200023c89828a0162000168565b9150509295509295509295565b6000620002568262000267565b9050919050565b6000819050919050565b600073ffffffffffffffffffffffffffffffffffffffff82169050919050565b6000819050919050565b600063ffffffff82169050919050565b600067ffffffffffffffff82169050919050565b7f4e487b7100000000000000000000000000000000000000000000000000000000600052602160045260246000fd5b600080fd5b620002f48162000249565b81146200030057600080fd5b50565b6200030e816200025d565b81146200031a57600080fd5b50565b620003288162000287565b81146200033457600080fd5b50565b620003428162000291565b81146200034e57600080fd5b50565b6200035c81620002a1565b81146200036857600080fd5b50565b60805160601c60a05160c05160601c60e0516101005160c01c6101205160e01c61014051611420620003e060003960006107b00152600061065f0152600061063c0152600061061b015260006105df0152600081816102b401526103b10152600081816102f1015261034501526114206000f3fe6080604052600436106100a75760003560e01c8063473f1ddc11610064578063473f1ddc1461018957806353a2c19a146101b45780635f1b0fd8146101df5780636e04ff0d1461020a578063e55ae4e814610248578063fd6673f514610285576100a7565b806309bc33a7146100ac578063115cbaf5146100d75780631fe543e3146101025780632cfcc5391461012b578063320229eb146101355780634585e33b14610160575b600080fd5b3480156100b857600080fd5b506100c16102b0565b6040516100ce9190611026565b60405180910390f35b3480156100e357600080fd5b506100ec6102d8565b6040516100f9919061100b565b60405180910390f35b34801561010e57600080fd5b5061012960048036038101906101249190610dff565b6102ef565b005b6101336103af565b005b34801561014157600080fd5b5061014a61051e565b6040516101579190611026565b60405180910390f35b34801561016c57600080fd5b5061018760048036038101906101829190610d0f565b610528565b005b34801561019557600080fd5b5061019e610727565b6040516101ab9190610f44565b60405180910390f35b3480156101c057600080fd5b506101c9610751565b6040516101d69190611026565b60405180910390f35b3480156101eb57600080fd5b506101f4610760565b6040516102019190611026565b60405180910390f35b34801561021657600080fd5b50610231600480360381019061022c9190610d5c565b61076d565b60405161023f929190610f88565b60405180910390f35b34801561025457600080fd5b5061026f600480360381019061026a9190610da5565b610856565b60405161027c9190610f44565b60405180910390f35b34801561029157600080fd5b5061029a61089d565b6040516102a79190611026565b60405180910390f35b60007f0000000000000000000000000000000000000000000000000000000000000000905090565b6000600160149054906101000a900460ff16905090565b7f000000000000000000000000000000000000000000000000000000000000000073ffffffffffffffffffffffffffffffffffffffff163373ffffffffffffffffffffffffffffffffffffffff16146103a157337f00000000000000000000000000000000000000000000000000000000000000006040517f1cf993f4000000000000000000000000000000000000000000000000000000008152600401610398929190610f5f565b60405180910390fd5b6103ab82826108a9565b5050565b7f0000000000000000000000000000000000000000000000000000000000000000341015610409576040517fbd4e069500000000000000000000000000000000000000000000000000000000815260040160405180910390fd5b6000600181111561041d5761041c611300565b5b600160149054906101000a900460ff16600181111561043f5761043e611300565b5b14610476576040517f1425571c00000000000000000000000000000000000000000000000000000000815260040160405180910390fd5b6000339080600181540180825580915050600190039060005260206000200160009091909190916101000a81548173ffffffffffffffffffffffffffffffffffffffff021916908373ffffffffffffffffffffffffffffffffffffffff1602179055503373ffffffffffffffffffffffffffffffffffffffff167f0805e1d667bddb8a95f0f09880cf94f403fb596ce79928d9f29b74203ba284d460405160405180910390a2565b6000600254905090565b60006105426040518060200160405280600081525061076d565b509050806105b15747600080549050600160149054906101000a900460ff16600181111561057357610572611300565b5b6040517fe059521b0000000000000000000000000000000000000000000000000000000081526004016105a893929190611041565b60405180910390fd5b60018060146101000a81548160ff021916908360018111156105d6576105d5611300565b5b021790555060007f000000000000000000000000000000000000000000000000000000000000000073ffffffffffffffffffffffffffffffffffffffff16635d3b1d307f00000000000000000000000000000000000000000000000000000000000000007f000000000000000000000000000000000000000000000000000000000000000060037f000000000000000000000000000000000000000000000000000000000000000060016040518663ffffffff1660e01b81526004016106a0959493929190610fb8565b602060405180830381600087803b1580156106ba57600080fd5b505af11580156106ce573d6000803e3d6000fd5b505050506040513d601f19601f820116820180604052508101906106f29190610dd2565b9050807fe0abfa81226f1e2ce09ba287cbb4c241e89b2b891a389274bb7d9c46e344daf060405160405180910390a250505050565b6000600160009054906101000a900473ffffffffffffffffffffffffffffffffffffffff16905090565b6000600163ffffffff16905090565b6000600361ffff16905090565b600060606000600160149054906101000a900460ff16600181111561079557610794611300565b5b600060018111156107a9576107a8611300565b5b14905060007f0000000000000000000000000000000000000000000000000000000000000000600254426107dd9190611121565b11905060008060008054905011905060008047141590508380156107fe5750825b80156108075750815b80156108105750805b9550856040518060400160405280600381526020017f30783000000000000000000000000000000000000000000000000000000000008152509550955050505050915091565b600080828154811061086b5761086a61132f565b5b9060005260206000200160009054906101000a900473ffffffffffffffffffffffffffffffffffffffff169050919050565b60008080549050905090565b60008080549050826000815181106108c4576108c361132f565b5b60200260200101516108d69190611271565b905060008082815481106108ed576108ec61132f565b5b9060005260206000200160009054906101000a900473ffffffffffffffffffffffffffffffffffffffff16905080600160006101000a81548173ffffffffffffffffffffffffffffffffffffffff021916908373ffffffffffffffffffffffffffffffffffffffff1602179055506000600160146101000a81548160ff0219169083600181111561098157610980611300565b5b0217905550600067ffffffffffffffff8111156109a1576109a061135e565b5b6040519080825280602002602001820160405280156109cf5781602001602082028036833780820191505090505b50600090805190602001906109e5929190610ada565b504260028190555060008173ffffffffffffffffffffffffffffffffffffffff1647604051610a1390610f2f565b60006040518083038185875af1925050503d8060008114610a50576040519150601f19603f3d011682016040523d82523d6000602084013e610a55565b606091505b5050905080610a90576040517fa1d04b3900000000000000000000000000000000000000000000000000000000815260040160405180910390fd5b8173ffffffffffffffffffffffffffffffffffffffff167f5b690ec4a06fe979403046eaeea5b3ce38524683c3001f662c8b5a829632f7df60405160405180910390a25050505050565b828054828255906000526020600020908101928215610b53579160200282015b82811115610b525782518260006101000a81548173ffffffffffffffffffffffffffffffffffffffff021916908373ffffffffffffffffffffffffffffffffffffffff16021790555091602001919060010190610afa565b5b509050610b609190610b64565b5090565b5b80821115610b7d576000816000905550600101610b65565b5090565b6000610b94610b8f8461109d565b611078565b90508083825260208201905082856020860282011115610bb757610bb6611397565b5b60005b85811015610be75781610bcd8882610ce5565b845260208401935060208301925050600181019050610bba565b5050509392505050565b6000610c04610bff846110c9565b611078565b905082815260208101848484011115610c2057610c1f61139c565b5b610c2b8482856111fe565b509392505050565b600082601f830112610c4857610c47611392565b5b8135610c58848260208601610b81565b91505092915050565b60008083601f840112610c7757610c76611392565b5b8235905067ffffffffffffffff811115610c9457610c9361138d565b5b602083019150836001820283011115610cb057610caf611397565b5b9250929050565b600082601f830112610ccc57610ccb611392565b5b8135610cdc848260208601610bf1565b91505092915050565b600081359050610cf4816113d3565b92915050565b600081519050610d09816113d3565b92915050565b60008060208385031215610d2657610d256113a6565b5b600083013567ffffffffffffffff811115610d4457610d436113a1565b5b610d5085828601610c61565b92509250509250929050565b600060208284031215610d7257610d716113a6565b5b600082013567ffffffffffffffff811115610d9057610d8f6113a1565b5b610d9c84828501610cb7565b91505092915050565b600060208284031215610dbb57610dba6113a6565b5b6000610dc984828501610ce5565b91505092915050565b600060208284031215610de857610de76113a6565b5b6000610df684828501610cfa565b91505092915050565b60008060408385031215610e1657610e156113a6565b5b6000610e2485828601610ce5565b925050602083013567ffffffffffffffff811115610e4557610e446113a1565b5b610e5185828601610c33565b9150509250929050565b610e6481611155565b82525050565b610e7381611167565b82525050565b610e8281611173565b82525050565b6000610e93826110fa565b610e9d8185611105565b9350610ead81856020860161120d565b610eb6816113ab565b840191505092915050565b610eca816111ec565b82525050565b6000610edd600083611116565b9150610ee8826113bc565b600082019050919050565b610efc81611190565b82525050565b610f0b816111be565b82525050565b610f1a816111c8565b82525050565b610f29816111d8565b82525050565b6000610f3a82610ed0565b9150819050919050565b6000602082019050610f596000830184610e5b565b92915050565b6000604082019050610f746000830185610e5b565b610f816020830184610e5b565b9392505050565b6000604082019050610f9d6000830185610e6a565b8181036020830152610faf8184610e88565b90509392505050565b600060a082019050610fcd6000830188610e79565b610fda6020830187610f20565b610fe76040830186610ef3565b610ff46060830185610f11565b6110016080830184610f11565b9695505050505050565b60006020820190506110206000830184610ec1565b92915050565b600060208201905061103b6000830184610f02565b92915050565b60006060820190506110566000830186610f02565b6110636020830185610f02565b6110706040830184610f02565b949350505050565b6000611082611093565b905061108e8282611240565b919050565b6000604051905090565b600067ffffffffffffffff8211156110b8576110b761135e565b5b602082029050602081019050919050565b600067ffffffffffffffff8211156110e4576110e361135e565b5b6110ed826113ab565b9050602081019050919050565b600081519050919050565b600082825260208201905092915050565b600081905092915050565b600061112c826111be565b9150611137836111be565b92508282101561114a576111496112a2565b5b828203905092915050565b60006111608261119e565b9050919050565b60008115159050919050565b6000819050919050565b600081905061118b826113bf565b919050565b600061ffff82169050919050565b600073ffffffffffffffffffffffffffffffffffffffff82169050919050565b6000819050919050565b600063ffffffff82169050919050565b600067ffffffffffffffff82169050919050565b60006111f78261117d565b9050919050565b82818337600083830152505050565b60005b8381101561122b578082015181840152602081019050611210565b8381111561123a576000848401525b50505050565b611249826113ab565b810181811067ffffffffffffffff821117156112685761126761135e565b5b80604052505050565b600061127c826111be565b9150611287836111be565b925082611297576112966112d1565b5b828206905092915050565b7f4e487b7100000000000000000000000000000000000000000000000000000000600052601160045260246000fd5b7f4e487b7100000000000000000000000000000000000000000000000000000000600052601260045260246000fd5b7f4e487b7100000000000000000000000000000000000000000000000000000000600052602160045260246000fd5b7f4e487b7100000000000000000000000000000000000000000000000000000000600052603260045260246000fd5b7f4e487b7100000000000000000000000000000000000000000000000000000000600052604160045260246000fd5b600080fd5b600080fd5b600080fd5b600080fd5b600080fd5b600080fd5b6000601f19601f8301169050919050565b50565b600281106113d0576113cf611300565b5b50565b6113dc816111be565b81146113e757600080fd5b5056fea264697066735822122002b516b820bf8e5aca4430028c4821ef4d7fbbcf9e9ee52463544ff3df768bbf64736f6c63430008070033","opcodes":"PUSH2 0x160 PUSH1 0x40 MSTORE CALLVALUE DUP1 ISZERO PUSH3 0x12 JUMPI PUSH1 0x0 DUP1 REVERT JUMPDEST POP PUSH1 0x40 MLOAD PUSH3 0x1800 CODESIZE SUB DUP1 PUSH3 0x1800 DUP4 CODECOPY DUP2 DUP2 ADD PUSH1 0x40 MSTORE DUP2 ADD SWAP1 PUSH3 0x38 SWAP2 SWAP1 PUSH3 0x1AD JUMP JUMPDEST DUP6 DUP1 PUSH20 0xFFFFFFFFFFFFFFFFFFFFFFFFFFFFFFFFFFFFFFFF AND PUSH1 0x80 DUP2 PUSH20 0xFFFFFFFFFFFFFFFFFFFFFFFFFFFFFFFFFFFFFFFF AND PUSH1 0x60 SHL DUP2 MSTORE POP POP POP DUP5 PUSH1 0xA0 DUP2 DUP2 MSTORE POP POP DUP6 PUSH20 0xFFFFFFFFFFFFFFFFFFFFFFFFFFFFFFFFFFFFFFFF AND PUSH1 0xC0 DUP2 PUSH20 0xFFFFFFFFFFFFFFFFFFFFFFFFFFFFFFFFFFFFFFFF AND PUSH1 0x60 SHL DUP2 MSTORE POP POP DUP4 PUSH1 0xE0 DUP2 DUP2 MSTORE POP POP DUP3 PUSH8 0xFFFFFFFFFFFFFFFF AND PUSH2 0x100 DUP2 PUSH8 0xFFFFFFFFFFFFFFFF AND PUSH1 0xC0 SHL DUP2 MSTORE POP POP DUP2 PUSH4 0xFFFFFFFF AND PUSH2 0x120 DUP2 PUSH4 0xFFFFFFFF AND PUSH1 0xE0 SHL DUP2 MSTORE POP POP PUSH1 0x0 PUSH1 0x1 PUSH1 0x14 PUSH2 0x100 EXP DUP2 SLOAD DUP2 PUSH1 0xFF MUL NOT AND SWAP1 DUP4 PUSH1 0x1 DUP2 GT ISZERO PUSH3 0x119 JUMPI PUSH3 0x118 PUSH3 0x2B5 JUMP JUMPDEST JUMPDEST MUL OR SWAP1 SSTORE POP TIMESTAMP PUSH1 0x2 DUP2 SWAP1 SSTORE POP DUP1 PUSH2 0x140 DUP2 DUP2 MSTORE POP POP POP POP POP POP POP POP PUSH3 0x36B JUMP JUMPDEST PUSH1 0x0 DUP2 MLOAD SWAP1 POP PUSH3 0x14B DUP2 PUSH3 0x2E9 JUMP JUMPDEST SWAP3 SWAP2 POP POP JUMP JUMPDEST PUSH1 0x0 DUP2 MLOAD SWAP1 POP PUSH3 0x162 DUP2 PUSH3 0x303 JUMP JUMPDEST SWAP3 SWAP2 POP POP JUMP JUMPDEST PUSH1 0x0 DUP2 MLOAD SWAP1 POP PUSH3 0x179 DUP2 PUSH3 0x31D JUMP JUMPDEST SWAP3 SWAP2 POP POP JUMP JUMPDEST PUSH1 0x0 DUP2 MLOAD SWAP1 POP PUSH3 0x190 DUP2 PUSH3 0x337 JUMP JUMPDEST SWAP3 SWAP2 POP POP JUMP JUMPDEST PUSH1 0x0 DUP2 MLOAD SWAP1 POP PUSH3 0x1A7 DUP2 PUSH3 0x351 JUMP JUMPDEST SWAP3 SWAP2 POP POP JUMP JUMPDEST PUSH1 0x0 DUP1 PUSH1 0x0 DUP1 PUSH1 0x0 DUP1 PUSH1 0xC0 DUP8 DUP10 SUB SLT ISZERO PUSH3 0x1CD JUMPI PUSH3 0x1CC PUSH3 0x2E4 JUMP JUMPDEST JUMPDEST PUSH1 0x0 PUSH3 0x1DD DUP10 DUP3 DUP11 ADD PUSH3 0x13A JUMP JUMPDEST SWAP7 POP POP PUSH1 0x20 PUSH3 0x1F0 DUP10 DUP3 DUP11 ADD PUSH3 0x168 JUMP JUMPDEST SWAP6 POP POP PUSH1 0x40 PUSH3 0x203 DUP10 DUP3 DUP11 ADD PUSH3 0x151 JUMP JUMPDEST SWAP5 POP POP PUSH1 0x60 PUSH3 0x216 DUP10 DUP3 DUP11 ADD PUSH3 0x196 JUMP JUMPDEST SWAP4 POP POP PUSH1 0x80 PUSH3 0x229 DUP10 DUP3 DUP11 ADD PUSH3 0x17F JUMP JUMPDEST SWAP3 POP POP PUSH1 0xA0 PUSH3 0x23C DUP10 DUP3 DUP11 ADD PUSH3 0x168 JUMP JUMPDEST SWAP2 POP POP SWAP3 SWAP6 POP SWAP3 SWAP6 POP SWAP3 SWAP6 JUMP JUMPDEST PUSH1 0x0 PUSH3 0x256 DUP3 PUSH3 0x267 JUMP JUMPDEST SWAP1 POP SWAP2 SWAP1 POP JUMP JUMPDEST PUSH1 0x0 DUP2 SWAP1 POP SWAP2 SWAP1 POP JUMP JUMPDEST PUSH1 0x0 PUSH20 0xFFFFFFFFFFFFFFFFFFFFFFFFFFFFFFFFFFFFFFFF DUP3 AND SWAP1 POP SWAP2 SWAP1 POP JUMP JUMPDEST PUSH1 0x0 DUP2 SWAP1 POP SWAP2 SWAP1 POP JUMP JUMPDEST PUSH1 0x0 PUSH4 0xFFFFFFFF DUP3 AND SWAP1 POP SWAP2 SWAP1 POP JUMP JUMPDEST PUSH1 0x0 PUSH8 0xFFFFFFFFFFFFFFFF DUP3 AND SWAP1 POP SWAP2 SWAP1 POP JUMP JUMPDEST PUSH32 0x4E487B7100000000000000000000000000000000000000000000000000000000 PUSH1 0x0 MSTORE PUSH1 0x21 PUSH1 0x4 MSTORE PUSH1 0x24 PUSH1 0x0 REVERT JUMPDEST PUSH1 0x0 DUP1 REVERT JUMPDEST PUSH3 0x2F4 DUP2 PUSH3 0x249 JUMP JUMPDEST DUP2 EQ PUSH3 0x300 JUMPI PUSH1 0x0 DUP1 REVERT JUMPDEST POP JUMP JUMPDEST PUSH3 0x30E DUP2 PUSH3 0x25D JUMP JUMPDEST DUP2 EQ PUSH3 0x31A JUMPI PUSH1 0x0 DUP1 REVERT JUMPDEST POP JUMP JUMPDEST PUSH3 0x328 DUP2 PUSH3 0x287 JUMP JUMPDEST DUP2 EQ PUSH3 0x334 JUMPI PUSH1 0x0 DUP1 REVERT JUMPDEST POP JUMP JUMPDEST PUSH3 0x342 DUP2 PUSH3 0x291 JUMP JUMPDEST DUP2 EQ PUSH3 0x34E JUMPI PUSH1 0x0 DUP1 REVERT JUMPDEST POP JUMP JUMPDEST PUSH3 0x35C DUP2 PUSH3 0x2A1 JUMP JUMPDEST DUP2 EQ PUSH3 0x368 JUMPI PUSH1 0x0 DUP1 REVERT JUMPDEST POP JUMP JUMPDEST PUSH1 0x80 MLOAD PUSH1 0x60 SHR PUSH1 0xA0 MLOAD PUSH1 0xC0 MLOAD PUSH1 0x60 SHR PUSH1 0xE0 MLOAD PUSH2 0x100 MLOAD PUSH1 0xC0 SHR PUSH2 0x120 MLOAD PUSH1 0xE0 SHR PUSH2 0x140 MLOAD PUSH2 0x1420 PUSH3 0x3E0 PUSH1 0x0 CODECOPY PUSH1 0x0 PUSH2 0x7B0 ADD MSTORE PUSH1 0x0 PUSH2 0x65F ADD MSTORE PUSH1 0x0 PUSH2 0x63C ADD MSTORE PUSH1 0x0 PUSH2 0x61B ADD MSTORE PUSH1 0x0 PUSH2 0x5DF ADD MSTORE PUSH1 0x0 DUP2 DUP2 PUSH2 0x2B4 ADD MSTORE PUSH2 0x3B1 ADD MSTORE PUSH1 0x0 DUP2 DUP2 PUSH2 0x2F1 ADD MSTORE PUSH2 0x345 ADD MSTORE PUSH2 0x1420 PUSH1 0x0 RETURN INVALID PUSH1 0x80 PUSH1 0x40 MSTORE PUSH1 0x4 CALLDATASIZE LT PUSH2 0xA7 JUMPI PUSH1 0x0 CALLDATALOAD PUSH1 0xE0 SHR DUP1 PUSH4 0x473F1DDC GT PUSH2 0x64 JUMPI DUP1 PUSH4 0x473F1DDC EQ PUSH2 0x189 JUMPI DUP1 PUSH4 0x53A2C19A EQ PUSH2 0x1B4 JUMPI DUP1 PUSH4 0x5F1B0FD8 EQ PUSH2 0x1DF JUMPI DUP1 PUSH4 0x6E04FF0D EQ PUSH2 0x20A JUMPI DUP1 PUSH4 0xE55AE4E8 EQ PUSH2 0x248 JUMPI DUP1 PUSH4 0xFD6673F5 EQ PUSH2 0x285 JUMPI PUSH2 0xA7 JUMP JUMPDEST DUP1 PUSH4 0x9BC33A7 EQ PUSH2 0xAC JUMPI DUP1 PUSH4 0x115CBAF5 EQ PUSH2 0xD7 JUMPI DUP1 PUSH4 0x1FE543E3 EQ PUSH2 0x102 JUMPI DUP1 PUSH4 0x2CFCC539 EQ PUSH2 0x12B JUMPI DUP1 PUSH4 0x320229EB EQ PUSH2 0x135 JUMPI DUP1 PUSH4 0x4585E33B EQ PUSH2 0x160 JUMPI JUMPDEST PUSH1 0x0 DUP1 REVERT JUMPDEST CALLVALUE DUP1 ISZERO PUSH2 0xB8 JUMPI PUSH1 0x0 DUP1 REVERT JUMPDEST POP PUSH2 0xC1 PUSH2 0x2B0 JUMP JUMPDEST PUSH1 0x40 MLOAD PUSH2 0xCE SWAP2 SWAP1 PUSH2 0x1026 JUMP JUMPDEST PUSH1 0x40 MLOAD DUP1 SWAP2 SUB SWAP1 RETURN JUMPDEST CALLVALUE DUP1 ISZERO PUSH2 0xE3 JUMPI PUSH1 0x0 DUP1 REVERT JUMPDEST POP PUSH2 0xEC PUSH2 0x2D8 JUMP JUMPDEST PUSH1 0x40 MLOAD PUSH2 0xF9 SWAP2 SWAP1 PUSH2 0x100B JUMP JUMPDEST PUSH1 0x40 MLOAD DUP1 SWAP2 SUB SWAP1 RETURN JUMPDEST CALLVALUE DUP1 ISZERO PUSH2 0x10E JUMPI PUSH1 0x0 DUP1 REVERT JUMPDEST POP PUSH2 0x129 PUSH1 0x4 DUP1 CALLDATASIZE SUB DUP2 ADD SWAP1 PUSH2 0x124 SWAP2 SWAP1 PUSH2 0xDFF JUMP JUMPDEST PUSH2 0x2EF JUMP JUMPDEST STOP JUMPDEST PUSH2 0x133 PUSH2 0x3AF JUMP JUMPDEST STOP JUMPDEST CALLVALUE DUP1 ISZERO PUSH2 0x141 JUMPI PUSH1 0x0 DUP1 REVERT JUMPDEST POP PUSH2 0x14A PUSH2 0x51E JUMP JUMPDEST PUSH1 0x40 MLOAD PUSH2 0x157 SWAP2 SWAP1 PUSH2 0x1026 JUMP JUMPDEST PUSH1 0x40 MLOAD DUP1 SWAP2 SUB SWAP1 RETURN JUMPDEST CALLVALUE DUP1 ISZERO PUSH2 0x16C JUMPI PUSH1 0x0 DUP1 REVERT JUMPDEST POP PUSH2 0x187 PUSH1 0x4 DUP1 CALLDATASIZE SUB DUP2 ADD SWAP1 PUSH2 0x182 SWAP2 SWAP1 PUSH2 0xD0F JUMP JUMPDEST PUSH2 0x528 JUMP JUMPDEST STOP JUMPDEST CALLVALUE DUP1 ISZERO PUSH2 0x195 JUMPI PUSH1 0x0 DUP1 REVERT JUMPDEST POP PUSH2 0x19E PUSH2 0x727 JUMP JUMPDEST PUSH1 0x40 MLOAD PUSH2 0x1AB SWAP2 SWAP1 PUSH2 0xF44 JUMP JUMPDEST PUSH1 0x40 MLOAD DUP1 SWAP2 SUB SWAP1 RETURN JUMPDEST CALLVALUE DUP1 ISZERO PUSH2 0x1C0 JUMPI PUSH1 0x0 DUP1 REVERT JUMPDEST POP PUSH2 0x1C9 PUSH2 0x751 JUMP JUMPDEST PUSH1 0x40 MLOAD PUSH2 0x1D6 SWAP2 SWAP1 PUSH2 0x1026 JUMP JUMPDEST PUSH1 0x40 MLOAD DUP1 SWAP2 SUB SWAP1 RETURN JUMPDEST CALLVALUE DUP1 ISZERO PUSH2 0x1EB JUMPI PUSH1 0x0 DUP1 REVERT JUMPDEST POP PUSH2 0x1F4 PUSH2 0x760 JUMP JUMPDEST PUSH1 0x40 MLOAD PUSH2 0x201 SWAP2 SWAP1 PUSH2 0x1026 JUMP JUMPDEST PUSH1 0x40 MLOAD DUP1 SWAP2 SUB SWAP1 RETURN JUMPDEST CALLVALUE DUP1 ISZERO PUSH2 0x216 JUMPI PUSH1 0x0 DUP1 REVERT JUMPDEST POP PUSH2 0x231 PUSH1 0x4 DUP1 CALLDATASIZE SUB DUP2 ADD SWAP1 PUSH2 0x22C SWAP2 SWAP1 PUSH2 0xD5C JUMP JUMPDEST PUSH2 0x76D JUMP JUMPDEST PUSH1 0x40 MLOAD PUSH2 0x23F SWAP3 SWAP2 SWAP1 PUSH2 0xF88 JUMP JUMPDEST PUSH1 0x40 MLOAD DUP1 SWAP2 SUB SWAP1 RETURN JUMPDEST CALLVALUE DUP1 ISZERO PUSH2 0x254 JUMPI PUSH1 0x0 DUP1 REVERT JUMPDEST POP PUSH2 0x26F PUSH1 0x4 DUP1 CALLDATASIZE SUB DUP2 ADD SWAP1 PUSH2 0x26A SWAP2 SWAP1 PUSH2 0xDA5 JUMP JUMPDEST PUSH2 0x856 JUMP JUMPDEST PUSH1 0x40 MLOAD PUSH2 0x27C SWAP2 SWAP1 PUSH2 0xF44 JUMP JUMPDEST PUSH1 0x40 MLOAD DUP1 SWAP2 SUB SWAP1 RETURN JUMPDEST CALLVALUE DUP1 ISZERO PUSH2 0x291 JUMPI PUSH1 0x0 DUP1 REVERT JUMPDEST POP PUSH2 0x29A PUSH2 0x89D JUMP JUMPDEST PUSH1 0x40 MLOAD PUSH2 0x2A7 SWAP2 SWAP1 PUSH2 0x1026 JUMP JUMPDEST PUSH1 0x40 MLOAD DUP1 SWAP2 SUB SWAP1 RETURN JUMPDEST PUSH1 0x0 PUSH32 0x0 SWAP1 POP SWAP1 JUMP JUMPDEST PUSH1 0x0 PUSH1 0x1 PUSH1 0x14 SWAP1 SLOAD SWAP1 PUSH2 0x100 EXP SWAP1 DIV PUSH1 0xFF AND SWAP1 POP SWAP1 JUMP JUMPDEST PUSH32 0x0 PUSH20 0xFFFFFFFFFFFFFFFFFFFFFFFFFFFFFFFFFFFFFFFF AND CALLER PUSH20 0xFFFFFFFFFFFFFFFFFFFFFFFFFFFFFFFFFFFFFFFF AND EQ PUSH2 0x3A1 JUMPI CALLER PUSH32 0x0 PUSH1 0x40 MLOAD PUSH32 0x1CF993F400000000000000000000000000000000000000000000000000000000 DUP2 MSTORE PUSH1 0x4 ADD PUSH2 0x398 SWAP3 SWAP2 SWAP1 PUSH2 0xF5F JUMP JUMPDEST PUSH1 0x40 MLOAD DUP1 SWAP2 SUB SWAP1 REVERT JUMPDEST PUSH2 0x3AB DUP3 DUP3 PUSH2 0x8A9 JUMP JUMPDEST POP POP JUMP JUMPDEST PUSH32 0x0 CALLVALUE LT ISZERO PUSH2 0x409 JUMPI PUSH1 0x40 MLOAD PUSH32 0xBD4E069500000000000000000000000000000000000000000000000000000000 DUP2 MSTORE PUSH1 0x4 ADD PUSH1 0x40 MLOAD DUP1 SWAP2 SUB SWAP1 REVERT JUMPDEST PUSH1 0x0 PUSH1 0x1 DUP2 GT ISZERO PUSH2 0x41D JUMPI PUSH2 0x41C PUSH2 0x1300 JUMP JUMPDEST JUMPDEST PUSH1 0x1 PUSH1 0x14 SWAP1 SLOAD SWAP1 PUSH2 0x100 EXP SWAP1 DIV PUSH1 0xFF AND PUSH1 0x1 DUP2 GT ISZERO PUSH2 0x43F JUMPI PUSH2 0x43E PUSH2 0x1300 JUMP JUMPDEST JUMPDEST EQ PUSH2 0x476 JUMPI PUSH1 0x40 MLOAD PUSH32 0x1425571C00000000000000000000000000000000000000000000000000000000 DUP2 MSTORE PUSH1 0x4 ADD PUSH1 0x40 MLOAD DUP1 SWAP2 SUB SWAP1 REVERT JUMPDEST PUSH1 0x0 CALLER SWAP1 DUP1 PUSH1 0x1 DUP2 SLOAD ADD DUP1 DUP3 SSTORE DUP1 SWAP2 POP POP PUSH1 0x1 SWAP1 SUB SWAP1 PUSH1 0x0 MSTORE PUSH1 0x20 PUSH1 0x0 KECCAK256 ADD PUSH1 0x0 SWAP1 SWAP2 SWAP1 SWAP2 SWAP1 SWAP2 PUSH2 0x100 EXP DUP2 SLOAD DUP2 PUSH20 0xFFFFFFFFFFFFFFFFFFFFFFFFFFFFFFFFFFFFFFFF MUL NOT AND SWAP1 DUP4 PUSH20 0xFFFFFFFFFFFFFFFFFFFFFFFFFFFFFFFFFFFFFFFF AND MUL OR SWAP1 SSTORE POP CALLER PUSH20 0xFFFFFFFFFFFFFFFFFFFFFFFFFFFFFFFFFFFFFFFF AND PUSH32 0x805E1D667BDDB8A95F0F09880CF94F403FB596CE79928D9F29B74203BA284D4 PUSH1 0x40 MLOAD PUSH1 0x40 MLOAD DUP1 SWAP2 SUB SWAP1 LOG2 JUMP JUMPDEST PUSH1 0x0 PUSH1 0x2 SLOAD SWAP1 POP SWAP1 JUMP JUMPDEST PUSH1 0x0 PUSH2 0x542 PUSH1 0x40 MLOAD DUP1 PUSH1 0x20 ADD PUSH1 0x40 MSTORE DUP1 PUSH1 0x0 DUP2 MSTORE POP PUSH2 0x76D JUMP JUMPDEST POP SWAP1 POP DUP1 PUSH2 0x5B1 JUMPI SELFBALANCE PUSH1 0x0 DUP1 SLOAD SWAP1 POP PUSH1 0x1 PUSH1 0x14 SWAP1 SLOAD SWAP1 PUSH2 0x100 EXP SWAP1 DIV PUSH1 0xFF AND PUSH1 0x1 DUP2 GT ISZERO PUSH2 0x573 JUMPI PUSH2 0x572 PUSH2 0x1300 JUMP JUMPDEST JUMPDEST PUSH1 0x40 MLOAD PUSH32 0xE059521B00000000000000000000000000000000000000000000000000000000 DUP2 MSTORE PUSH1 0x4 ADD PUSH2 0x5A8 SWAP4 SWAP3 SWAP2 SWAP1 PUSH2 0x1041 JUMP JUMPDEST PUSH1 0x40 MLOAD DUP1 SWAP2 SUB SWAP1 REVERT JUMPDEST PUSH1 0x1 DUP1 PUSH1 0x14 PUSH2 0x100 EXP DUP2 SLOAD DUP2 PUSH1 0xFF MUL NOT AND SWAP1 DUP4 PUSH1 0x1 DUP2 GT ISZERO PUSH2 0x5D6 JUMPI PUSH2 0x5D5 PUSH2 0x1300 JUMP JUMPDEST JUMPDEST MUL OR SWAP1 SSTORE POP PUSH1 0x0 PUSH32 0x0 PUSH20 0xFFFFFFFFFFFFFFFFFFFFFFFFFFFFFFFFFFFFFFFF AND PUSH4 0x5D3B1D30 PUSH32 0x0 PUSH32 0x0 PUSH1 0x3 PUSH32 0x0 PUSH1 0x1 PUSH1 0x40 MLOAD DUP7 PUSH4 0xFFFFFFFF AND PUSH1 0xE0 SHL DUP2 MSTORE PUSH1 0x4 ADD PUSH2 0x6A0 SWAP6 SWAP5 SWAP4 SWAP3 SWAP2 SWAP1 PUSH2 0xFB8 JUMP JUMPDEST PUSH1 0x20 PUSH1 0x40 MLOAD DUP1 DUP4 SUB DUP2 PUSH1 0x0 DUP8 DUP1 EXTCODESIZE ISZERO DUP1 ISZERO PUSH2 0x6BA JUMPI PUSH1 0x0 DUP1 REVERT JUMPDEST POP GAS CALL ISZERO DUP1 ISZERO PUSH2 0x6CE JUMPI RETURNDATASIZE PUSH1 0x0 DUP1 RETURNDATACOPY RETURNDATASIZE PUSH1 0x0 REVERT JUMPDEST POP POP POP POP PUSH1 0x40 MLOAD RETURNDATASIZE PUSH1 0x1F NOT PUSH1 0x1F DUP3 ADD AND DUP3 ADD DUP1 PUSH1 0x40 MSTORE POP DUP2 ADD SWAP1 PUSH2 0x6F2 SWAP2 SWAP1 PUSH2 0xDD2 JUMP JUMPDEST SWAP1 POP DUP1 PUSH32 0xE0ABFA81226F1E2CE09BA287CBB4C241E89B2B891A389274BB7D9C46E344DAF0 PUSH1 0x40 MLOAD PUSH1 0x40 MLOAD DUP1 SWAP2 SUB SWAP1 LOG2 POP POP POP POP JUMP JUMPDEST PUSH1 0x0 PUSH1 0x1 PUSH1 0x0 SWAP1 SLOAD SWAP1 PUSH2 0x100 EXP SWAP1 DIV PUSH20 0xFFFFFFFFFFFFFFFFFFFFFFFFFFFFFFFFFFFFFFFF AND SWAP1 POP SWAP1 JUMP JUMPDEST PUSH1 0x0 PUSH1 0x1 PUSH4 0xFFFFFFFF AND SWAP1 POP SWAP1 JUMP JUMPDEST PUSH1 0x0 PUSH1 0x3 PUSH2 0xFFFF AND SWAP1 POP SWAP1 JUMP JUMPDEST PUSH1 0x0 PUSH1 0x60 PUSH1 0x0 PUSH1 0x1 PUSH1 0x14 SWAP1 SLOAD SWAP1 PUSH2 0x100 EXP SWAP1 DIV PUSH1 0xFF AND PUSH1 0x1 DUP2 GT ISZERO PUSH2 0x795 JUMPI PUSH2 0x794 PUSH2 0x1300 JUMP JUMPDEST JUMPDEST PUSH1 0x0 PUSH1 0x1 DUP2 GT ISZERO PUSH2 0x7A9 JUMPI PUSH2 0x7A8 PUSH2 0x1300 JUMP JUMPDEST JUMPDEST EQ SWAP1 POP PUSH1 0x0 PUSH32 0x0 PUSH1 0x2 SLOAD TIMESTAMP PUSH2 0x7DD SWAP2 SWAP1 PUSH2 0x1121 JUMP JUMPDEST GT SWAP1 POP PUSH1 0x0 DUP1 PUSH1 0x0 DUP1 SLOAD SWAP1 POP GT SWAP1 POP PUSH1 0x0 DUP1 SELFBALANCE EQ ISZERO SWAP1 POP DUP4 DUP1 ISZERO PUSH2 0x7FE JUMPI POP DUP3 JUMPDEST DUP1 ISZERO PUSH2 0x807 JUMPI POP DUP2 JUMPDEST DUP1 ISZERO PUSH2 0x810 JUMPI POP DUP1 JUMPDEST SWAP6 POP DUP6 PUSH1 0x40 MLOAD DUP1 PUSH1 0x40 ADD PUSH1 0x40 MSTORE DUP1 PUSH1 0x3 DUP2 MSTORE PUSH1 0x20 ADD PUSH32 0x3078300000000000000000000000000000000000000000000000000000000000 DUP2 MSTORE POP SWAP6 POP SWAP6 POP POP POP POP POP SWAP2 POP SWAP2 JUMP JUMPDEST PUSH1 0x0 DUP1 DUP3 DUP2 SLOAD DUP2 LT PUSH2 0x86B JUMPI PUSH2 0x86A PUSH2 0x132F JUMP JUMPDEST JUMPDEST SWAP1 PUSH1 0x0 MSTORE PUSH1 0x20 PUSH1 0x0 KECCAK256 ADD PUSH1 0x0 SWAP1 SLOAD SWAP1 PUSH2 0x100 EXP SWAP1 DIV PUSH20 0xFFFFFFFFFFFFFFFFFFFFFFFFFFFFFFFFFFFFFFFF AND SWAP1 POP SWAP2 SWAP1 POP JUMP JUMPDEST PUSH1 0x0 DUP1 DUP1 SLOAD SWAP1 POP SWAP1 POP SWAP1 JUMP JUMPDEST PUSH1 0x0 DUP1 DUP1 SLOAD SWAP1 POP DUP3 PUSH1 0x0 DUP2 MLOAD DUP2 LT PUSH2 0x8C4 JUMPI PUSH2 0x8C3 PUSH2 0x132F JUMP JUMPDEST JUMPDEST PUSH1 0x20 MUL PUSH1 0x20 ADD ADD MLOAD PUSH2 0x8D6 SWAP2 SWAP1 PUSH2 0x1271 JUMP JUMPDEST SWAP1 POP PUSH1 0x0 DUP1 DUP3 DUP2 SLOAD DUP2 LT PUSH2 0x8ED JUMPI PUSH2 0x8EC PUSH2 0x132F JUMP JUMPDEST JUMPDEST SWAP1 PUSH1 0x0 MSTORE PUSH1 0x20 PUSH1 0x0 KECCAK256 ADD PUSH1 0x0 SWAP1 SLOAD SWAP1 PUSH2 0x100 EXP SWAP1 DIV PUSH20 0xFFFFFFFFFFFFFFFFFFFFFFFFFFFFFFFFFFFFFFFF AND SWAP1 POP DUP1 PUSH1 0x1 PUSH1 0x0 PUSH2 0x100 EXP DUP2 SLOAD DUP2 PUSH20 0xFFFFFFFFFFFFFFFFFFFFFFFFFFFFFFFFFFFFFFFF MUL NOT AND SWAP1 DUP4 PUSH20 0xFFFFFFFFFFFFFFFFFFFFFFFFFFFFFFFFFFFFFFFF AND MUL OR SWAP1 SSTORE POP PUSH1 0x0 PUSH1 0x1 PUSH1 0x14 PUSH2 0x100 EXP DUP2 SLOAD DUP2 PUSH1 0xFF MUL NOT AND SWAP1 DUP4 PUSH1 0x1 DUP2 GT ISZERO PUSH2 0x981 JUMPI PUSH2 0x980 PUSH2 0x1300 JUMP JUMPDEST JUMPDEST MUL OR SWAP1 SSTORE POP PUSH1 0x0 PUSH8 0xFFFFFFFFFFFFFFFF DUP2 GT ISZERO PUSH2 0x9A1 JUMPI PUSH2 0x9A0 PUSH2 0x135E JUMP JUMPDEST JUMPDEST PUSH1 0x40 MLOAD SWAP1 DUP1 DUP3 MSTORE DUP1 PUSH1 0x20 MUL PUSH1 0x20 ADD DUP3 ADD PUSH1 0x40 MSTORE DUP1 ISZERO PUSH2 0x9CF JUMPI DUP2 PUSH1 0x20 ADD PUSH1 0x20 DUP3 MUL DUP1 CALLDATASIZE DUP4 CALLDATACOPY DUP1 DUP3 ADD SWAP2 POP POP SWAP1 POP JUMPDEST POP PUSH1 0x0 SWAP1 DUP1 MLOAD SWAP1 PUSH1 0x20 ADD SWAP1 PUSH2 0x9E5 SWAP3 SWAP2 SWAP1 PUSH2 0xADA JUMP JUMPDEST POP TIMESTAMP PUSH1 0x2 DUP2 SWAP1 SSTORE POP PUSH1 0x0 DUP2 PUSH20 0xFFFFFFFFFFFFFFFFFFFFFFFFFFFFFFFFFFFFFFFF AND SELFBALANCE PUSH1 0x40 MLOAD PUSH2 0xA13 SWAP1 PUSH2 0xF2F JUMP JUMPDEST PUSH1 0x0 PUSH1 0x40 MLOAD DUP1 DUP4 SUB DUP2 DUP6 DUP8 GAS CALL SWAP3 POP POP POP RETURNDATASIZE DUP1 PUSH1 0x0 DUP2 EQ PUSH2 0xA50 JUMPI PUSH1 0x40 MLOAD SWAP2 POP PUSH1 0x1F NOT PUSH1 0x3F RETURNDATASIZE ADD AND DUP3 ADD PUSH1 0x40 MSTORE RETURNDATASIZE DUP3 MSTORE RETURNDATASIZE PUSH1 0x0 PUSH1 0x20 DUP5 ADD RETURNDATACOPY PUSH2 0xA55 JUMP JUMPDEST PUSH1 0x60 SWAP2 POP JUMPDEST POP POP SWAP1 POP DUP1 PUSH2 0xA90 JUMPI PUSH1 0x40 MLOAD PUSH32 0xA1D04B3900000000000000000000000000000000000000000000000000000000 DUP2 MSTORE PUSH1 0x4 ADD PUSH1 0x40 MLOAD DUP1 SWAP2 SUB SWAP1 REVERT JUMPDEST DUP2 PUSH20 0xFFFFFFFFFFFFFFFFFFFFFFFFFFFFFFFFFFFFFFFF AND PUSH32 0x5B690EC4A06FE979403046EAEEA5B3CE38524683C3001F662C8B5A829632F7DF PUSH1 0x40 MLOAD PUSH1 0x40 MLOAD DUP1 SWAP2 SUB SWAP1 LOG2 POP POP POP POP POP JUMP JUMPDEST DUP3 DUP1 SLOAD DUP3 DUP3 SSTORE SWAP1 PUSH1 0x0 MSTORE PUSH1 0x20 PUSH1 0x0 KECCAK256 SWAP1 DUP2 ADD SWAP3 DUP3 ISZERO PUSH2 0xB53 JUMPI SWAP2 PUSH1 0x20 MUL DUP3 ADD JUMPDEST DUP3 DUP2 GT ISZERO PUSH2 0xB52 JUMPI DUP3 MLOAD DUP3 PUSH1 0x0 PUSH2 0x100 EXP DUP2 SLOAD DUP2 PUSH20 0xFFFFFFFFFFFFFFFFFFFFFFFFFFFFFFFFFFFFFFFF MUL NOT AND SWAP1 DUP4 PUSH20 0xFFFFFFFFFFFFFFFFFFFFFFFFFFFFFFFFFFFFFFFF AND MUL OR SWAP1 SSTORE POP SWAP2 PUSH1 0x20 ADD SWAP2 SWAP1 PUSH1 0x1 ADD SWAP1 PUSH2 0xAFA JUMP JUMPDEST JUMPDEST POP SWAP1 POP PUSH2 0xB60 SWAP2 SWAP1 PUSH2 0xB64 JUMP JUMPDEST POP SWAP1 JUMP JUMPDEST JUMPDEST DUP1 DUP3 GT ISZERO PUSH2 0xB7D JUMPI PUSH1 0x0 DUP2 PUSH1 0x0 SWAP1 SSTORE POP PUSH1 0x1 ADD PUSH2 0xB65 JUMP JUMPDEST POP SWAP1 JUMP JUMPDEST PUSH1 0x0 PUSH2 0xB94 PUSH2 0xB8F DUP5 PUSH2 0x109D JUMP JUMPDEST PUSH2 0x1078 JUMP JUMPDEST SWAP1 POP DUP1 DUP4 DUP3 MSTORE PUSH1 0x20 DUP3 ADD SWAP1 POP DUP3 DUP6 PUSH1 0x20 DUP7 MUL DUP3 ADD GT ISZERO PUSH2 0xBB7 JUMPI PUSH2 0xBB6 PUSH2 0x1397 JUMP JUMPDEST JUMPDEST PUSH1 0x0 JUMPDEST DUP6 DUP2 LT ISZERO PUSH2 0xBE7 JUMPI DUP2 PUSH2 0xBCD DUP9 DUP3 PUSH2 0xCE5 JUMP JUMPDEST DUP5 MSTORE PUSH1 0x20 DUP5 ADD SWAP4 POP PUSH1 0x20 DUP4 ADD SWAP3 POP POP PUSH1 0x1 DUP2 ADD SWAP1 POP PUSH2 0xBBA JUMP JUMPDEST POP POP POP SWAP4 SWAP3 POP POP POP JUMP JUMPDEST PUSH1 0x0 PUSH2 0xC04 PUSH2 0xBFF DUP5 PUSH2 0x10C9 JUMP JUMPDEST PUSH2 0x1078 JUMP JUMPDEST SWAP1 POP DUP3 DUP2 MSTORE PUSH1 0x20 DUP2 ADD DUP5 DUP5 DUP5 ADD GT ISZERO PUSH2 0xC20 JUMPI PUSH2 0xC1F PUSH2 0x139C JUMP JUMPDEST JUMPDEST PUSH2 0xC2B DUP5 DUP3 DUP6 PUSH2 0x11FE JUMP JUMPDEST POP SWAP4 SWAP3 POP POP POP JUMP JUMPDEST PUSH1 0x0 DUP3 PUSH1 0x1F DUP4 ADD SLT PUSH2 0xC48 JUMPI PUSH2 0xC47 PUSH2 0x1392 JUMP JUMPDEST JUMPDEST DUP2 CALLDATALOAD PUSH2 0xC58 DUP5 DUP3 PUSH1 0x20 DUP7 ADD PUSH2 0xB81 JUMP JUMPDEST SWAP2 POP POP SWAP3 SWAP2 POP POP JUMP JUMPDEST PUSH1 0x0 DUP1 DUP4 PUSH1 0x1F DUP5 ADD SLT PUSH2 0xC77 JUMPI PUSH2 0xC76 PUSH2 0x1392 JUMP JUMPDEST JUMPDEST DUP3 CALLDATALOAD SWAP1 POP PUSH8 0xFFFFFFFFFFFFFFFF DUP2 GT ISZERO PUSH2 0xC94 JUMPI PUSH2 0xC93 PUSH2 0x138D JUMP JUMPDEST JUMPDEST PUSH1 0x20 DUP4 ADD SWAP2 POP DUP4 PUSH1 0x1 DUP3 MUL DUP4 ADD GT ISZERO PUSH2 0xCB0 JUMPI PUSH2 0xCAF PUSH2 0x1397 JUMP JUMPDEST JUMPDEST SWAP3 POP SWAP3 SWAP1 POP JUMP JUMPDEST PUSH1 0x0 DUP3 PUSH1 0x1F DUP4 ADD SLT PUSH2 0xCCC JUMPI PUSH2 0xCCB PUSH2 0x1392 JUMP JUMPDEST JUMPDEST DUP2 CALLDATALOAD PUSH2 0xCDC DUP5 DUP3 PUSH1 0x20 DUP7 ADD PUSH2 0xBF1 JUMP JUMPDEST SWAP2 POP POP SWAP3 SWAP2 POP POP JUMP JUMPDEST PUSH1 0x0 DUP2 CALLDATALOAD SWAP1 POP PUSH2 0xCF4 DUP2 PUSH2 0x13D3 JUMP JUMPDEST SWAP3 SWAP2 POP POP JUMP JUMPDEST PUSH1 0x0 DUP2 MLOAD SWAP1 POP PUSH2 0xD09 DUP2 PUSH2 0x13D3 JUMP JUMPDEST SWAP3 SWAP2 POP POP JUMP JUMPDEST PUSH1 0x0 DUP1 PUSH1 0x20 DUP4 DUP6 SUB SLT ISZERO PUSH2 0xD26 JUMPI PUSH2 0xD25 PUSH2 0x13A6 JUMP JUMPDEST JUMPDEST PUSH1 0x0 DUP4 ADD CALLDATALOAD PUSH8 0xFFFFFFFFFFFFFFFF DUP2 GT ISZERO PUSH2 0xD44 JUMPI PUSH2 0xD43 PUSH2 0x13A1 JUMP JUMPDEST JUMPDEST PUSH2 0xD50 DUP6 DUP3 DUP7 ADD PUSH2 0xC61 JUMP JUMPDEST SWAP3 POP SWAP3 POP POP SWAP3 POP SWAP3 SWAP1 POP JUMP JUMPDEST PUSH1 0x0 PUSH1 0x20 DUP3 DUP5 SUB SLT ISZERO PUSH2 0xD72 JUMPI PUSH2 0xD71 PUSH2 0x13A6 JUMP JUMPDEST JUMPDEST PUSH1 0x0 DUP3 ADD CALLDATALOAD PUSH8 0xFFFFFFFFFFFFFFFF DUP2 GT ISZERO PUSH2 0xD90 JUMPI PUSH2 0xD8F PUSH2 0x13A1 JUMP JUMPDEST JUMPDEST PUSH2 0xD9C DUP5 DUP3 DUP6 ADD PUSH2 0xCB7 JUMP JUMPDEST SWAP2 POP POP SWAP3 SWAP2 POP POP JUMP JUMPDEST PUSH1 0x0 PUSH1 0x20 DUP3 DUP5 SUB SLT ISZERO PUSH2 0xDBB JUMPI PUSH2 0xDBA PUSH2 0x13A6 JUMP JUMPDEST JUMPDEST PUSH1 0x0 PUSH2 0xDC9 DUP5 DUP3 DUP6 ADD PUSH2 0xCE5 JUMP JUMPDEST SWAP2 POP POP SWAP3 SWAP2 POP POP JUMP JUMPDEST PUSH1 0x0 PUSH1 0x20 DUP3 DUP5 SUB SLT ISZERO PUSH2 0xDE8 JUMPI PUSH2 0xDE7 PUSH2 0x13A6 JUMP JUMPDEST JUMPDEST PUSH1 0x0 PUSH2 0xDF6 DUP5 DUP3 DUP6 ADD PUSH2 0xCFA JUMP JUMPDEST SWAP2 POP POP SWAP3 SWAP2 POP POP JUMP JUMPDEST PUSH1 0x0 DUP1 PUSH1 0x40 DUP4 DUP6 SUB SLT ISZERO PUSH2 0xE16 JUMPI PUSH2 0xE15 PUSH2 0x13A6 JUMP JUMPDEST JUMPDEST PUSH1 0x0 PUSH2 0xE24 DUP6 DUP3 DUP7 ADD PUSH2 0xCE5 JUMP JUMPDEST SWAP3 POP POP PUSH1 0x20 DUP4 ADD CALLDATALOAD PUSH8 0xFFFFFFFFFFFFFFFF DUP2 GT ISZERO PUSH2 0xE45 JUMPI PUSH2 0xE44 PUSH2 0x13A1 JUMP JUMPDEST JUMPDEST PUSH2 0xE51 DUP6 DUP3 DUP7 ADD PUSH2 0xC33 JUMP JUMPDEST SWAP2 POP POP SWAP3 POP SWAP3 SWAP1 POP JUMP JUMPDEST PUSH2 0xE64 DUP2 PUSH2 0x1155 JUMP JUMPDEST DUP3 MSTORE POP POP JUMP JUMPDEST PUSH2 0xE73 DUP2 PUSH2 0x1167 JUMP JUMPDEST DUP3 MSTORE POP POP JUMP JUMPDEST PUSH2 0xE82 DUP2 PUSH2 0x1173 JUMP JUMPDEST DUP3 MSTORE POP POP JUMP JUMPDEST PUSH1 0x0 PUSH2 0xE93 DUP3 PUSH2 0x10FA JUMP JUMPDEST PUSH2 0xE9D DUP2 DUP6 PUSH2 0x1105 JUMP JUMPDEST SWAP4 POP PUSH2 0xEAD DUP2 DUP6 PUSH1 0x20 DUP7 ADD PUSH2 0x120D JUMP JUMPDEST PUSH2 0xEB6 DUP2 PUSH2 0x13AB JUMP JUMPDEST DUP5 ADD SWAP2 POP POP SWAP3 SWAP2 POP POP JUMP JUMPDEST PUSH2 0xECA DUP2 PUSH2 0x11EC JUMP JUMPDEST DUP3 MSTORE POP POP JUMP JUMPDEST PUSH1 0x0 PUSH2 0xEDD PUSH1 0x0 DUP4 PUSH2 0x1116 JUMP JUMPDEST SWAP2 POP PUSH2 0xEE8 DUP3 PUSH2 0x13BC JUMP JUMPDEST PUSH1 0x0 DUP3 ADD SWAP1 POP SWAP2 SWAP1 POP JUMP JUMPDEST PUSH2 0xEFC DUP2 PUSH2 0x1190 JUMP JUMPDEST DUP3 MSTORE POP POP JUMP JUMPDEST PUSH2 0xF0B DUP2 PUSH2 0x11BE JUMP JUMPDEST DUP3 MSTORE POP POP JUMP JUMPDEST PUSH2 0xF1A DUP2 PUSH2 0x11C8 JUMP JUMPDEST DUP3 MSTORE POP POP JUMP JUMPDEST PUSH2 0xF29 DUP2 PUSH2 0x11D8 JUMP JUMPDEST DUP3 MSTORE POP POP JUMP JUMPDEST PUSH1 0x0 PUSH2 0xF3A DUP3 PUSH2 0xED0 JUMP JUMPDEST SWAP2 POP DUP2 SWAP1 POP SWAP2 SWAP1 POP JUMP JUMPDEST PUSH1 0x0 PUSH1 0x20 DUP3 ADD SWAP1 POP PUSH2 0xF59 PUSH1 0x0 DUP4 ADD DUP5 PUSH2 0xE5B JUMP JUMPDEST SWAP3 SWAP2 POP POP JUMP JUMPDEST PUSH1 0x0 PUSH1 0x40 DUP3 ADD SWAP1 POP PUSH2 0xF74 PUSH1 0x0 DUP4 ADD DUP6 PUSH2 0xE5B JUMP JUMPDEST PUSH2 0xF81 PUSH1 0x20 DUP4 ADD DUP5 PUSH2 0xE5B JUMP JUMPDEST SWAP4 SWAP3 POP POP POP JUMP JUMPDEST PUSH1 0x0 PUSH1 0x40 DUP3 ADD SWAP1 POP PUSH2 0xF9D PUSH1 0x0 DUP4 ADD DUP6 PUSH2 0xE6A JUMP JUMPDEST DUP2 DUP2 SUB PUSH1 0x20 DUP4 ADD MSTORE PUSH2 0xFAF DUP2 DUP5 PUSH2 0xE88 JUMP JUMPDEST SWAP1 POP SWAP4 SWAP3 POP POP POP JUMP JUMPDEST PUSH1 0x0 PUSH1 0xA0 DUP3 ADD SWAP1 POP PUSH2 0xFCD PUSH1 0x0 DUP4 ADD DUP9 PUSH2 0xE79 JUMP JUMPDEST PUSH2 0xFDA PUSH1 0x20 DUP4 ADD DUP8 PUSH2 0xF20 JUMP JUMPDEST PUSH2 0xFE7 PUSH1 0x40 DUP4 ADD DUP7 PUSH2 0xEF3 JUMP JUMPDEST PUSH2 0xFF4 PUSH1 0x60 DUP4 ADD DUP6 PUSH2 0xF11 JUMP JUMPDEST PUSH2 0x1001 PUSH1 0x80 DUP4 ADD DUP5 PUSH2 0xF11 JUMP JUMPDEST SWAP7 SWAP6 POP POP POP POP POP POP JUMP JUMPDEST PUSH1 0x0 PUSH1 0x20 DUP3 ADD SWAP1 POP PUSH2 0x1020 PUSH1 0x0 DUP4 ADD DUP5 PUSH2 0xEC1 JUMP JUMPDEST SWAP3 SWAP2 POP POP JUMP JUMPDEST PUSH1 0x0 PUSH1 0x20 DUP3 ADD SWAP1 POP PUSH2 0x103B PUSH1 0x0 DUP4 ADD DUP5 PUSH2 0xF02 JUMP JUMPDEST SWAP3 SWAP2 POP POP JUMP JUMPDEST PUSH1 0x0 PUSH1 0x60 DUP3 ADD SWAP1 POP PUSH2 0x1056 PUSH1 0x0 DUP4 ADD DUP7 PUSH2 0xF02 JUMP JUMPDEST PUSH2 0x1063 PUSH1 0x20 DUP4 ADD DUP6 PUSH2 0xF02 JUMP JUMPDEST PUSH2 0x1070 PUSH1 0x40 DUP4 ADD DUP5 PUSH2 0xF02 JUMP JUMPDEST SWAP5 SWAP4 POP POP POP POP JUMP JUMPDEST PUSH1 0x0 PUSH2 0x1082 PUSH2 0x1093 JUMP JUMPDEST SWAP1 POP PUSH2 0x108E DUP3 DUP3 PUSH2 0x1240 JUMP JUMPDEST SWAP2 SWAP1 POP JUMP JUMPDEST PUSH1 0x0 PUSH1 0x40 MLOAD SWAP1 POP SWAP1 JUMP JUMPDEST PUSH1 0x0 PUSH8 0xFFFFFFFFFFFFFFFF DUP3 GT ISZERO PUSH2 0x10B8 JUMPI PUSH2 0x10B7 PUSH2 0x135E JUMP JUMPDEST JUMPDEST PUSH1 0x20 DUP3 MUL SWAP1 POP PUSH1 0x20 DUP2 ADD SWAP1 POP SWAP2 SWAP1 POP JUMP JUMPDEST PUSH1 0x0 PUSH8 0xFFFFFFFFFFFFFFFF DUP3 GT ISZERO PUSH2 0x10E4 JUMPI PUSH2 0x10E3 PUSH2 0x135E JUMP JUMPDEST JUMPDEST PUSH2 0x10ED DUP3 PUSH2 0x13AB JUMP JUMPDEST SWAP1 POP PUSH1 0x20 DUP2 ADD SWAP1 POP SWAP2 SWAP1 POP JUMP JUMPDEST PUSH1 0x0 DUP2 MLOAD SWAP1 POP SWAP2 SWAP1 POP JUMP JUMPDEST PUSH1 0x0 DUP3 DUP3 MSTORE PUSH1 0x20 DUP3 ADD SWAP1 POP SWAP3 SWAP2 POP POP JUMP JUMPDEST PUSH1 0x0 DUP2 SWAP1 POP SWAP3 SWAP2 POP POP JUMP JUMPDEST PUSH1 0x0 PUSH2 0x112C DUP3 PUSH2 0x11BE JUMP JUMPDEST SWAP2 POP PUSH2 0x1137 DUP4 PUSH2 0x11BE JUMP JUMPDEST SWAP3 POP DUP3 DUP3 LT ISZERO PUSH2 0x114A JUMPI PUSH2 0x1149 PUSH2 0x12A2 JUMP JUMPDEST JUMPDEST DUP3 DUP3 SUB SWAP1 POP SWAP3 SWAP2 POP POP JUMP JUMPDEST PUSH1 0x0 PUSH2 0x1160 DUP3 PUSH2 0x119E JUMP JUMPDEST SWAP1 POP SWAP2 SWAP1 POP JUMP JUMPDEST PUSH1 0x0 DUP2 ISZERO ISZERO SWAP1 POP SWAP2 SWAP1 POP JUMP JUMPDEST PUSH1 0x0 DUP2 SWAP1 POP SWAP2 SWAP1 POP JUMP JUMPDEST PUSH1 0x0 DUP2 SWAP1 POP PUSH2 0x118B DUP3 PUSH2 0x13BF JUMP JUMPDEST SWAP2 SWAP1 POP JUMP JUMPDEST PUSH1 0x0 PUSH2 0xFFFF DUP3 AND SWAP1 POP SWAP2 SWAP1 POP JUMP JUMPDEST PUSH1 0x0 PUSH20 0xFFFFFFFFFFFFFFFFFFFFFFFFFFFFFFFFFFFFFFFF DUP3 AND SWAP1 POP SWAP2 SWAP1 POP JUMP JUMPDEST PUSH1 0x0 DUP2 SWAP1 POP SWAP2 SWAP1 POP JUMP JUMPDEST PUSH1 0x0 PUSH4 0xFFFFFFFF DUP3 AND SWAP1 POP SWAP2 SWAP1 POP JUMP JUMPDEST PUSH1 0x0 PUSH8 0xFFFFFFFFFFFFFFFF DUP3 AND SWAP1 POP SWAP2 SWAP1 POP JUMP JUMPDEST PUSH1 0x0 PUSH2 0x11F7 DUP3 PUSH2 0x117D JUMP JUMPDEST SWAP1 POP SWAP2 SWAP1 POP JUMP JUMPDEST DUP3 DUP2 DUP4 CALLDATACOPY PUSH1 0x0 DUP4 DUP4 ADD MSTORE POP POP POP JUMP JUMPDEST PUSH1 0x0 JUMPDEST DUP4 DUP2 LT ISZERO PUSH2 0x122B JUMPI DUP1 DUP3 ADD MLOAD DUP2 DUP5 ADD MSTORE PUSH1 0x20 DUP2 ADD SWAP1 POP PUSH2 0x1210 JUMP JUMPDEST DUP4 DUP2 GT ISZERO PUSH2 0x123A JUMPI PUSH1 0x0 DUP5 DUP5 ADD MSTORE JUMPDEST POP POP POP POP JUMP JUMPDEST PUSH2 0x1249 DUP3 PUSH2 0x13AB JUMP JUMPDEST DUP2 ADD DUP2 DUP2 LT PUSH8 0xFFFFFFFFFFFFFFFF DUP3 GT OR ISZERO PUSH2 0x1268 JUMPI PUSH2 0x1267 PUSH2 0x135E JUMP JUMPDEST JUMPDEST DUP1 PUSH1 0x40 MSTORE POP POP POP JUMP JUMPDEST PUSH1 0x0 PUSH2 0x127C DUP3 PUSH2 0x11BE JUMP JUMPDEST SWAP2 POP PUSH2 0x1287 DUP4 PUSH2 0x11BE JUMP JUMPDEST SWAP3 POP DUP3 PUSH2 0x1297 JUMPI PUSH2 0x1296 PUSH2 0x12D1 JUMP JUMPDEST JUMPDEST DUP3 DUP3 MOD SWAP1 POP SWAP3 SWAP2 POP POP JUMP JUMPDEST PUSH32 0x4E487B7100000000000000000000000000000000000000000000000000000000 PUSH1 0x0 MSTORE PUSH1 0x11 PUSH1 0x4 MSTORE PUSH1 0x24 PUSH1 0x0 REVERT JUMPDEST PUSH32 0x4E487B7100000000000000000000000000000000000000000000000000000000 PUSH1 0x0 MSTORE PUSH1 0x12 PUSH1 0x4 MSTORE PUSH1 0x24 PUSH1 0x0 REVERT JUMPDEST PUSH32 0x4E487B7100000000000000000000000000000000000000000000000000000000 PUSH1 0x0 MSTORE PUSH1 0x21 PUSH1 0x4 MSTORE PUSH1 0x24 PUSH1 0x0 REVERT JUMPDEST PUSH32 0x4E487B7100000000000000000000000000000000000000000000000000000000 PUSH1 0x0 MSTORE PUSH1 0x32 PUSH1 0x4 MSTORE PUSH1 0x24 PUSH1 0x0 REVERT JUMPDEST PUSH32 0x4E487B7100000000000000000000000000000000000000000000000000000000 PUSH1 0x0 MSTORE PUSH1 0x41 PUSH1 0x4 MSTORE PUSH1 0x24 PUSH1 0x0 REVERT JUMPDEST PUSH1 0x0 DUP1 REVERT JUMPDEST PUSH1 0x0 DUP1 REVERT JUMPDEST PUSH1 0x0 DUP1 REVERT JUMPDEST PUSH1 0x0 DUP1 REVERT JUMPDEST PUSH1 0x0 DUP1 REVERT JUMPDEST PUSH1 0x0 DUP1 REVERT JUMPDEST PUSH1 0x0 PUSH1 0x1F NOT PUSH1 0x1F DUP4 ADD AND SWAP1 POP SWAP2 SWAP1 POP JUMP JUMPDEST POP JUMP JUMPDEST PUSH1 0x2 DUP2 LT PUSH2 0x13D0 JUMPI PUSH2 0x13CF PUSH2 0x1300 JUMP JUMPDEST JUMPDEST POP JUMP JUMPDEST PUSH2 0x13DC DUP2 PUSH2 0x11BE JUMP JUMPDEST DUP2 EQ PUSH2 0x13E7 JUMPI PUSH1 0x0 DUP1 REVERT JUMPDEST POP JUMP INVALID LOG2 PUSH5 0x6970667358 0x22 SLT KECCAK256 MUL 0xB5 AND 0xB8 KECCAK256 0xBF DUP15 GAS 0xCA DIFFICULTY ADDRESS MUL DUP13 BASEFEE 0x21 0xEF 0x4D PUSH32 0xBBCF9E9EE52463544FF3DF768BBF64736F6C6343000807003300000000000000 "},"gasEstimates":{"creation":{"codeDepositCost":"1030400","executionCost":"infinite","totalCost":"infinite"},"external":{"checkUpkeep(bytes)":"infinite","enterRaffle()":"infinite","getEntranceFee()":"infinite","getLatestTimeStamp()":"2526","getNumWords()":"365","getNumberOfPlayers()":"2555","getPlayer(uint256)":"5055","getRaffleState()":"2641","getRecentWinner()":"2522","getRequestConfirmations()":"387","performUpkeep(bytes)":"infinite","rawFulfillRandomWords(uint256,uint256[])":"infinite"},"internal":{"fulfillRandomWords(uint256,uint256[] memory)":"infinite"}},"methodIdentifiers":{"checkUpkeep(bytes)":"6e04ff0d","enterRaffle()":"2cfcc539","getEntranceFee()":"09bc33a7","getLatestTimeStamp()":"320229eb","getNumWords()":"53a2c19a","getNumberOfPlayers()":"fd6673f5","getPlayer(uint256)":"e55ae4e8","getRaffleState()":"115cbaf5","getRecentWinner()":"473f1ddc","getRequestConfirmations()":"5f1b0fd8","performUpkeep(bytes)":"4585e33b","rawFulfillRandomWords(uint256,uint256[])":"1fe543e3"}},"storageLayout":{"storage":[{"astId":1166,"contract":"contracts/Raffle.sol:Raffle","label":"s_players","offset":0,"slot":"0","type":"t_array(t_address)dyn_storage"},{"astId":1183,"contract":"contracts/Raffle.sol:Raffle","label":"s_recentWinner","offset":0,"slot":"1","type":"t_address"},{"astId":1186,"contract":"contracts/Raffle.sol:Raffle","label":"s_raffleState","offset":20,"slot":"1","type":"t_enum(RaffleState)1161"},{"astId":1188,"contract":"contracts/Raffle.sol:Raffle","label":"s_lastTimeStamp","offset":0,"slot":"2","type":"t_uint256"}],"types":{"t_address":{"encoding":"inplace","label":"address","numberOfBytes":"20"},"t_array(t_address)dyn_storage":{"base":"t_address","encoding":"dynamic_array","label":"address[]","numberOfBytes":"32"},"t_enum(RaffleState)1161":{"encoding":"inplace","label":"enum Raffle.RaffleState","numberOfBytes":"1"},"t_uint256":{"encoding":"inplace","label":"uint256","numberOfBytes":"32"}}},"userdoc":{"kind":"user","methods":{},"notice":"this contract is for creating an untamperable decentralized smart contarct","version":1}}}}