{
  "_format": "hh-sol-artifact-1",
  "contractName": "Raffle",
  "sourceName": "contracts/Raffle.sol",
  "abi": [
    {
      "inputs": [
        {
          "internalType": "address",
          "name": "vrfCoordinatorV2",
          "type": "address"
        },
        {
          "internalType": "uint256",
          "name": "entranceFee",
          "type": "uint256"
        },
        {
          "internalType": "bytes32",
          "name": "gasLane",
          "type": "bytes32"
        },
        {
          "internalType": "uint64",
          "name": "subscriptionId",
          "type": "uint64"
        },
        {
          "internalType": "uint32",
          "name": "callbackGasLimit",
          "type": "uint32"
        },
        {
          "internalType": "uint256",
          "name": "interval",
          "type": "uint256"
        }
      ],
      "stateMutability": "nonpayable",
      "type": "constructor"
    },
    {
      "inputs": [
        {
          "internalType": "address",
          "name": "have",
          "type": "address"
        },
        {
          "internalType": "address",
          "name": "want",
          "type": "address"
        }
      ],
      "name": "OnlyCoordinatorCanFulfill",
      "type": "error"
    },
    {
      "inputs": [
        {
          "internalType": "uint256",
          "name": "cuurentBalance",
          "type": "uint256"
        },
        {
          "internalType": "uint256",
          "name": "numPlayers",
          "type": "uint256"
        },
        {
          "internalType": "uint256",
          "name": "raffleState",
          "type": "uint256"
        }
      ],
      "name": "Raffle_UpkeepNotNeeded",
      "type": "error"
    },
    {
      "inputs": [],
      "name": "Raffle__NotEnoughETHEntered",
      "type": "error"
    },
    {
      "inputs": [],
      "name": "Raffle__NotOpen",
      "type": "error"
    },
    {
      "inputs": [],
      "name": "Raffle__TransferFailed",
      "type": "error"
    },
    {
      "anonymous": false,
      "inputs": [
        {
          "indexed": true,
          "internalType": "address",
          "name": "player",
          "type": "address"
        }
      ],
      "name": "RaffleEnter",
      "type": "event"
    },
    {
      "anonymous": false,
      "inputs": [
        {
          "indexed": true,
          "internalType": "address",
          "name": "winner",
          "type": "address"
        }
      ],
      "name": "WinnerPicked",
      "type": "event"
    },
    {
      "anonymous": false,
      "inputs": [
        {
          "indexed": true,
          "internalType": "uint256",
          "name": "requestId",
          "type": "uint256"
        }
      ],
      "name": "requestedRaffleWinner",
      "type": "event"
    },
    {
      "inputs": [
        {
          "internalType": "bytes",
          "name": "",
          "type": "bytes"
        }
      ],
      "name": "checkUpkeep",
      "outputs": [
        {
          "internalType": "bool",
          "name": "upkeepNeeded",
          "type": "bool"
        },
        {
          "internalType": "bytes",
          "name": "",
          "type": "bytes"
        }
      ],
      "stateMutability": "nonpayable",
      "type": "function"
    },
    {
      "inputs": [],
      "name": "enterRaffle",
      "outputs": [],
      "stateMutability": "payable",
      "type": "function"
    },
    {
      "inputs": [],
      "name": "getEntranceFee",
      "outputs": [
        {
          "internalType": "uint256",
          "name": "",
          "type": "uint256"
        }
      ],
      "stateMutability": "view",
      "type": "function"
    },
    {
      "inputs": [],
      "name": "getInterval",
      "outputs": [
        {
          "internalType": "uint256",
          "name": "",
          "type": "uint256"
        }
      ],
      "stateMutability": "view",
      "type": "function"
    },
    {
      "inputs": [],
      "name": "getLatestTimeStamp",
      "outputs": [
        {
          "internalType": "uint256",
          "name": "",
          "type": "uint256"
        }
      ],
      "stateMutability": "view",
      "type": "function"
    },
    {
      "inputs": [],
      "name": "getNumWords",
      "outputs": [
        {
          "internalType": "uint256",
          "name": "",
          "type": "uint256"
        }
      ],
      "stateMutability": "pure",
      "type": "function"
    },
    {
      "inputs": [],
      "name": "getNumberOfPlayers",
      "outputs": [
        {
          "internalType": "uint256",
          "name": "",
          "type": "uint256"
        }
      ],
      "stateMutability": "view",
      "type": "function"
    },
    {
      "inputs": [
        {
          "internalType": "uint256",
          "name": "_index",
          "type": "uint256"
        }
      ],
      "name": "getPlayer",
      "outputs": [
        {
          "internalType": "address",
          "name": "",
          "type": "address"
        }
      ],
      "stateMutability": "view",
      "type": "function"
    },
    {
      "inputs": [],
      "name": "getRaffleState",
      "outputs": [
        {
          "internalType": "enum Raffle.RaffleState",
          "name": "",
          "type": "uint8"
        }
      ],
      "stateMutability": "view",
      "type": "function"
    },
    {
      "inputs": [],
      "name": "getRecentWinner",
      "outputs": [
        {
          "internalType": "address",
          "name": "",
          "type": "address"
        }
      ],
      "stateMutability": "view",
      "type": "function"
    },
    {
      "inputs": [],
      "name": "getRequestConfirmations",
      "outputs": [
        {
          "internalType": "uint256",
          "name": "",
          "type": "uint256"
        }
      ],
      "stateMutability": "pure",
      "type": "function"
    },
    {
      "inputs": [
        {
          "internalType": "bytes",
          "name": "",
          "type": "bytes"
        }
      ],
      "name": "performUpkeep",
      "outputs": [],
      "stateMutability": "nonpayable",
      "type": "function"
    },
    {
      "inputs": [
        {
          "internalType": "uint256",
          "name": "requestId",
          "type": "uint256"
        },
        {
          "internalType": "uint256[]",
          "name": "randomWords",
          "type": "uint256[]"
        }
      ],
      "name": "rawFulfillRandomWords",
      "outputs": [],
      "stateMutability": "nonpayable",
      "type": "function"
    }
  ],
  "bytecode": "0x6101606040523480156200001257600080fd5b5060405162001875380380620018758339818101604052810190620000389190620001ad565b858073ffffffffffffffffffffffffffffffffffffffff1660808173ffffffffffffffffffffffffffffffffffffffff1660601b81525050508460a081815250508573ffffffffffffffffffffffffffffffffffffffff1660c08173ffffffffffffffffffffffffffffffffffffffff1660601b815250508360e081815250508267ffffffffffffffff166101008167ffffffffffffffff1660c01b815250508163ffffffff166101208163ffffffff1660e01b815250506000600160146101000a81548160ff02191690836001811115620001195762000118620002b5565b5b0217905550426002819055508061014081815250505050505050506200036b565b6000815190506200014b81620002e9565b92915050565b600081519050620001628162000303565b92915050565b60008151905062000179816200031d565b92915050565b600081519050620001908162000337565b92915050565b600081519050620001a78162000351565b92915050565b60008060008060008060c08789031215620001cd57620001cc620002e4565b5b6000620001dd89828a016200013a565b9650506020620001f089828a0162000168565b95505060406200020389828a0162000151565b94505060606200021689828a0162000196565b93505060806200022989828a016200017f565b92505060a06200023c89828a0162000168565b9150509295509295509295565b6000620002568262000267565b9050919050565b6000819050919050565b600073ffffffffffffffffffffffffffffffffffffffff82169050919050565b6000819050919050565b600063ffffffff82169050919050565b600067ffffffffffffffff82169050919050565b7f4e487b7100000000000000000000000000000000000000000000000000000000600052602160045260246000fd5b600080fd5b620002f48162000249565b81146200030057600080fd5b50565b6200030e816200025d565b81146200031a57600080fd5b50565b620003288162000287565b81146200033457600080fd5b50565b620003428162000291565b81146200034e57600080fd5b50565b6200035c81620002a1565b81146200036857600080fd5b50565b60805160601c60a05160c05160601c60e0516101005160c01c6101205160e01c6101405161148e620003e7600039600081816107f601526108a0015260006106a50152600061068201526000610661015260006106250152600081816102fa01526103f7015260008181610337015261038b015261148e6000f3fe6080604052600436106100c25760003560e01c8063473f1ddc1161007f5780636e04ff0d116100595780636e04ff0d1461022557806391ad27b414610263578063e55ae4e81461028e578063fd6673f5146102cb576100c2565b8063473f1ddc146101a457806353a2c19a146101cf5780635f1b0fd8146101fa576100c2565b806309bc33a7146100c7578063115cbaf5146100f25780631fe543e31461011d5780632cfcc53914610146578063320229eb146101505780634585e33b1461017b575b600080fd5b3480156100d357600080fd5b506100dc6102f6565b6040516100e99190611094565b60405180910390f35b3480156100fe57600080fd5b5061010761031e565b6040516101149190611079565b60405180910390f35b34801561012957600080fd5b50610144600480360381019061013f9190610e6d565b610335565b005b61014e6103f5565b005b34801561015c57600080fd5b50610165610564565b6040516101729190611094565b60405180910390f35b34801561018757600080fd5b506101a2600480360381019061019d9190610d7d565b61056e565b005b3480156101b057600080fd5b506101b961076d565b6040516101c69190610fb2565b60405180910390f35b3480156101db57600080fd5b506101e4610797565b6040516101f19190611094565b60405180910390f35b34801561020657600080fd5b5061020f6107a6565b60405161021c9190611094565b60405180910390f35b34801561023157600080fd5b5061024c60048036038101906102479190610dca565b6107b3565b60405161025a929190610ff6565b60405180910390f35b34801561026f57600080fd5b5061027861089c565b6040516102859190611094565b60405180910390f35b34801561029a57600080fd5b506102b560048036038101906102b09190610e13565b6108c4565b6040516102c29190610fb2565b60405180910390f35b3480156102d757600080fd5b506102e061090b565b6040516102ed9190611094565b60405180910390f35b60007f0000000000000000000000000000000000000000000000000000000000000000905090565b6000600160149054906101000a900460ff16905090565b7f000000000000000000000000000000000000000000000000000000000000000073ffffffffffffffffffffffffffffffffffffffff163373ffffffffffffffffffffffffffffffffffffffff16146103e757337f00000000000000000000000000000000000000000000000000000000000000006040517f1cf993f40000000000000000000000000000000000000000000000000000000081526004016103de929190610fcd565b60405180910390fd5b6103f18282610917565b5050565b7f000000000000000000000000000000000000000000000000000000000000000034101561044f576040517fbd4e069500000000000000000000000000000000000000000000000000000000815260040160405180910390fd5b600060018111156104635761046261136e565b5b600160149054906101000a900460ff1660018111156104855761048461136e565b5b146104bc576040517f1425571c00000000000000000000000000000000000000000000000000000000815260040160405180910390fd5b6000339080600181540180825580915050600190039060005260206000200160009091909190916101000a81548173ffffffffffffffffffffffffffffffffffffffff021916908373ffffffffffffffffffffffffffffffffffffffff1602179055503373ffffffffffffffffffffffffffffffffffffffff167f0805e1d667bddb8a95f0f09880cf94f403fb596ce79928d9f29b74203ba284d460405160405180910390a2565b6000600254905090565b6000610588604051806020016040528060008152506107b3565b509050806105f75747600080549050600160149054906101000a900460ff1660018111156105b9576105b861136e565b5b6040517fe059521b0000000000000000000000000000000000000000000000000000000081526004016105ee939291906110af565b60405180910390fd5b60018060146101000a81548160ff0219169083600181111561061c5761061b61136e565b5b021790555060007f000000000000000000000000000000000000000000000000000000000000000073ffffffffffffffffffffffffffffffffffffffff16635d3b1d307f00000000000000000000000000000000000000000000000000000000000000007f000000000000000000000000000000000000000000000000000000000000000060037f000000000000000000000000000000000000000000000000000000000000000060016040518663ffffffff1660e01b81526004016106e6959493929190611026565b602060405180830381600087803b15801561070057600080fd5b505af1158015610714573d6000803e3d6000fd5b505050506040513d601f19601f820116820180604052508101906107389190610e40565b9050807fe0abfa81226f1e2ce09ba287cbb4c241e89b2b891a389274bb7d9c46e344daf060405160405180910390a250505050565b6000600160009054906101000a900473ffffffffffffffffffffffffffffffffffffffff16905090565b6000600163ffffffff16905090565b6000600361ffff16905090565b600060606000600160149054906101000a900460ff1660018111156107db576107da61136e565b5b600060018111156107ef576107ee61136e565b5b14905060007f000000000000000000000000000000000000000000000000000000000000000060025442610823919061118f565b11905060008060008054905011905060008047141590508380156108445750825b801561084d5750815b80156108565750805b9550856040518060400160405280600381526020017f30783000000000000000000000000000000000000000000000000000000000008152509550955050505050915091565b60007f0000000000000000000000000000000000000000000000000000000000000000905090565b60008082815481106108d9576108d861139d565b5b9060005260206000200160009054906101000a900473ffffffffffffffffffffffffffffffffffffffff169050919050565b60008080549050905090565b60008080549050826000815181106109325761093161139d565b5b602002602001015161094491906112df565b9050600080828154811061095b5761095a61139d565b5b9060005260206000200160009054906101000a900473ffffffffffffffffffffffffffffffffffffffff16905080600160006101000a81548173ffffffffffffffffffffffffffffffffffffffff021916908373ffffffffffffffffffffffffffffffffffffffff1602179055506000600160146101000a81548160ff021916908360018111156109ef576109ee61136e565b5b0217905550600067ffffffffffffffff811115610a0f57610a0e6113cc565b5b604051908082528060200260200182016040528015610a3d5781602001602082028036833780820191505090505b5060009080519060200190610a53929190610b48565b504260028190555060008173ffffffffffffffffffffffffffffffffffffffff1647604051610a8190610f9d565b60006040518083038185875af1925050503d8060008114610abe576040519150601f19603f3d011682016040523d82523d6000602084013e610ac3565b606091505b5050905080610afe576040517fa1d04b3900000000000000000000000000000000000000000000000000000000815260040160405180910390fd5b8173ffffffffffffffffffffffffffffffffffffffff167f5b690ec4a06fe979403046eaeea5b3ce38524683c3001f662c8b5a829632f7df60405160405180910390a25050505050565b828054828255906000526020600020908101928215610bc1579160200282015b82811115610bc05782518260006101000a81548173ffffffffffffffffffffffffffffffffffffffff021916908373ffffffffffffffffffffffffffffffffffffffff16021790555091602001919060010190610b68565b5b509050610bce9190610bd2565b5090565b5b80821115610beb576000816000905550600101610bd3565b5090565b6000610c02610bfd8461110b565b6110e6565b90508083825260208201905082856020860282011115610c2557610c24611405565b5b60005b85811015610c555781610c3b8882610d53565b845260208401935060208301925050600181019050610c28565b5050509392505050565b6000610c72610c6d84611137565b6110e6565b905082815260208101848484011115610c8e57610c8d61140a565b5b610c9984828561126c565b509392505050565b600082601f830112610cb657610cb5611400565b5b8135610cc6848260208601610bef565b91505092915050565b60008083601f840112610ce557610ce4611400565b5b8235905067ffffffffffffffff811115610d0257610d016113fb565b5b602083019150836001820283011115610d1e57610d1d611405565b5b9250929050565b600082601f830112610d3a57610d39611400565b5b8135610d4a848260208601610c5f565b91505092915050565b600081359050610d6281611441565b92915050565b600081519050610d7781611441565b92915050565b60008060208385031215610d9457610d93611414565b5b600083013567ffffffffffffffff811115610db257610db161140f565b5b610dbe85828601610ccf565b92509250509250929050565b600060208284031215610de057610ddf611414565b5b600082013567ffffffffffffffff811115610dfe57610dfd61140f565b5b610e0a84828501610d25565b91505092915050565b600060208284031215610e2957610e28611414565b5b6000610e3784828501610d53565b91505092915050565b600060208284031215610e5657610e55611414565b5b6000610e6484828501610d68565b91505092915050565b60008060408385031215610e8457610e83611414565b5b6000610e9285828601610d53565b925050602083013567ffffffffffffffff811115610eb357610eb261140f565b5b610ebf85828601610ca1565b9150509250929050565b610ed2816111c3565b82525050565b610ee1816111d5565b82525050565b610ef0816111e1565b82525050565b6000610f0182611168565b610f0b8185611173565b9350610f1b81856020860161127b565b610f2481611419565b840191505092915050565b610f388161125a565b82525050565b6000610f4b600083611184565b9150610f568261142a565b600082019050919050565b610f6a816111fe565b82525050565b610f798161122c565b82525050565b610f8881611236565b82525050565b610f9781611246565b82525050565b6000610fa882610f3e565b9150819050919050565b6000602082019050610fc76000830184610ec9565b92915050565b6000604082019050610fe26000830185610ec9565b610fef6020830184610ec9565b9392505050565b600060408201905061100b6000830185610ed8565b818103602083015261101d8184610ef6565b90509392505050565b600060a08201905061103b6000830188610ee7565b6110486020830187610f8e565b6110556040830186610f61565b6110626060830185610f7f565b61106f6080830184610f7f565b9695505050505050565b600060208201905061108e6000830184610f2f565b92915050565b60006020820190506110a96000830184610f70565b92915050565b60006060820190506110c46000830186610f70565b6110d16020830185610f70565b6110de6040830184610f70565b949350505050565b60006110f0611101565b90506110fc82826112ae565b919050565b6000604051905090565b600067ffffffffffffffff821115611126576111256113cc565b5b602082029050602081019050919050565b600067ffffffffffffffff821115611152576111516113cc565b5b61115b82611419565b9050602081019050919050565b600081519050919050565b600082825260208201905092915050565b600081905092915050565b600061119a8261122c565b91506111a58361122c565b9250828210156111b8576111b7611310565b5b828203905092915050565b60006111ce8261120c565b9050919050565b60008115159050919050565b6000819050919050565b60008190506111f98261142d565b919050565b600061ffff82169050919050565b600073ffffffffffffffffffffffffffffffffffffffff82169050919050565b6000819050919050565b600063ffffffff82169050919050565b600067ffffffffffffffff82169050919050565b6000611265826111eb565b9050919050565b82818337600083830152505050565b60005b8381101561129957808201518184015260208101905061127e565b838111156112a8576000848401525b50505050565b6112b782611419565b810181811067ffffffffffffffff821117156112d6576112d56113cc565b5b80604052505050565b60006112ea8261122c565b91506112f58361122c565b9250826113055761130461133f565b5b828206905092915050565b7f4e487b7100000000000000000000000000000000000000000000000000000000600052601160045260246000fd5b7f4e487b7100000000000000000000000000000000000000000000000000000000600052601260045260246000fd5b7f4e487b7100000000000000000000000000000000000000000000000000000000600052602160045260246000fd5b7f4e487b7100000000000000000000000000000000000000000000000000000000600052603260045260246000fd5b7f4e487b7100000000000000000000000000000000000000000000000000000000600052604160045260246000fd5b600080fd5b600080fd5b600080fd5b600080fd5b600080fd5b600080fd5b6000601f19601f8301169050919050565b50565b6002811061143e5761143d61136e565b5b50565b61144a8161122c565b811461145557600080fd5b5056fea2646970667358221220fe62885171a829c5bfa0a818ddf9389a4c894703a27b2e64119588d1a08114f464736f6c63430008070033",
  "linkReferences": {},
  "deployedLinkReferences": {}
}